:020000040000FA
:10000000742883178001840AFF3E031D02286F288D
:10001000A301A200FF30A207031CA307031C6F2843
:100020000330A100DF3016200A28A101E83EA0001D
:10003000A109FC30031C1F28A00703181C28A007D7
:100040006400A10F1C2820182528A01C29280000C6
:1000500029280800A20003302D28A8002308210227
:10006000031D34282208200204300318013003192C
:1000700002302805031DFF306F28A501A4011030B0
:10008000A600210DA40DA50D2208A4022308031C1F
:10009000230FA502031853282208A40723080318D6
:1000A000230FA5070310A00DA10DA60B41282008C2
:1000B0006F281030A800A101A001A70CA60C031CFA
:1000C00067282208A00723080318230FA107A10C03
:1000D000A00CA50CA40CA80B5D2824086F28831382
:1000E0000313831264000800831661308F008312AB
:1000F000980103179E019F01831603139501831234
:100100000317950183160313960183128B0183163F
:10011000B13081008312031795309900A5309A0001
:100120009B018316F0309E008312873098000313E2
:1001300085018316043085008312860183163030D2
:1001400086008312870183160A30870020308400DE
:10015000603083128A010220A030840050308A016E
:1001600002202030840050308A010120CB0164003D
:100170000A304B028A110318C928403086068316BC
:100180000613643083128A010820CB0A8A11031DEA
:10019000B7280613CB0164000A304B028A110318FA
:1001A000DD282030870683168712643083128A0187
:1001B0000820CB0A8A11031DCB2887128A11DB2164
:1001C000CA018A111D214A08443E84000008C60065
:1001D0006400013046028A11031CF8284A08443E94
:1001E0008400800132308A01082007178A11F9281B
:1001F00007130130CA008A111D214A08443E8400B9
:100200000008C6006400013046028A11031C12294E
:100210004A08443E8400800132308A010820871752
:100220008A1113298713061A0617061E0613861A43
:100230008716861E87128A01E028031719140313F4
:1002400083104A188314031783189914831C991078
:100250001A14031383104A188314031783189A146B
:10026000831C9A100313810103104A0D383E840049
:100270000008C600840A0008C7004708A100460815
:100280008A01162003104A0D403E840001088000B8
:10029000840A800103104A0D403E84000008C60015
:1002A000840A0008C7004608A6004708A7000A30CD
:1002B000A200A3018A015920C6002508C700031027
:1002C0004A0D403E840046088000840A47088000AA
:1002D00003104A0D3C3E84000008C600840A000852
:1002E000C7000930A600A7014608A2004708A300DE
:1002F0008A015920C6002508C70003104A0D403E58
:1003000084000008C800840A0008C9004608C8071D
:1003100047080318013EC9074808A0004908A10082
:100320000A30A200A3018A013D20C8002108C900AB
:1003300003104A0D3C3E840048088000840A4908A6
:10034000800003104A0D403E84000008C600840A65
:100350000008C70003104A0D3C3E84000008C80096
:10036000840A0008C9001430C8020030031C013E92
:10037000C9024608A0004708A1004908A300480890
:100380008A012A208A11031DD6294A08443E840086
:100390000008C60001304607C600C701C70D4A085D
:1003A000443E8400460880008A11DA294A08443E07
:1003B000840080010800CA01640002304A028A11E8
:1003C0000318142A03104A0D383E84000008C600A2
:1003D000840A0008C700C60A0319C70A03104A0D99
:1003E000383E840046088000840A470880008A015D
:1003F0001D2103104A0D403E84000008C600840AF7
:100400000008C7004608A0004708A1000730A30065
:10041000D0308A012A208A11031D102A8A01E2297C
:10042000CA0A8A11031DDC29080063008A01152A03
:02400E00FC3F75
:00000001FF
