:020000040000FA
:10000000742883178001840AFF3E031D02286F288D
:10001000A301A200FF30A207031CA307031C6F2843
:100020000330A100DF3016200A28A101E83EA0001D
:10003000A109FC30031C1F28A00703181C28A007D7
:100040006400A10F1C2820182528A01C29280000C6
:1000500029280800A20003302D28A8002308210227
:10006000031D34282208200204300318013003192C
:1000700002302805031DFF306F28A501A4011030B0
:10008000A600210DA40DA50D2208A4022308031C1F
:10009000230FA502031853282208A40723080318D6
:1000A000230FA5070310A00DA10DA60B41282008C2
:1000B0006F281030A800A101A001A70CA60C031CFA
:1000C00067282208A00723080318230FA107A10C03
:1000D000A00CA50CA40CA80B5D2824086F28831382
:1000E0000313831264000800831661308F008312AB
:1000F000980103179E019F01831603139501831234
:100100000317950183160313960183128B0183163F
:10011000B13081008312031795309900A5309A0001
:100120009B018316F0309E008312873098000313E2
:1001300085018316043085008312860183163030D2
:1001400086008312870183160A30870020308400DE
:10015000603083128A010220A030840050308A016E
:1001600002202030840050308A010120CF01640039
:1001700002304F028A110318CB28403086068316BE
:10018000061383120130A300F4308A010920CF0A3C
:100190008A11031DB7280613CF01640002304F02F5
:1001A0008A110318E12820308706831687128312EC
:1001B0000130A300F4308A010920CF0A8A11031DFF
:1001C000CD2887128A11C121CE018A111F214E0824
:1001D000483E84000008CA00640001304A028A11C7
:1001E000031CFB2832308A010820071732308A01AD
:1001F00008208A11FC2807130130CE008A111F2124
:100200004E08483E84000008CA00640001304A02DB
:100210008A11031C142932308A01082087173230D2
:100220008A0108208A1115298713061A0617061E47
:100230000613861A8716861E87128A01E42803177A
:100240001914031383104E18831403178318991479
:10025000831C99101A14031383104E188314031768
:1002600083189A14831C9A100313810103104E0DF6
:10027000383E84000008CA00840A0008CB004B08FE
:10028000A1004A088A0116200108A600A7010A3029
:10029000A200A3018A015920CA002508CB0003103F
:1002A0004E0D443E84004A088000840A4B088000BA
:1002B00003104E0D3C3E84000008CA00840A00086A
:1002C000CB000930A600A7014A08A2004B08A300F2
:1002D0008A015920CA002508CB0003104E0D443E68
:1002E00084000008CC00840A0008CD004A08CC072E
:1002F0004B080318013ECD074C08A0004D08A10093
:100300000A30A200A3018A013D20CC002108CD00C3
:1003100003104E0D3C3E84004C088000840A4D08BA
:10032000800003104E0D443E84000008CA00840A79
:100330000008CB0003104E0D403E84000008CC00A6
:10034000840A0008CD000230CC020030031C013EBC
:10035000CD024A08A0004B08A1004D08A3004C089C
:100360008A012A208A11031DBC294E08483E8400B8
:10037000013080008A11C0294E08483E8400800167
:100380000800CE01640002304E028A1103180C2AC4
:1003900003104E0D383E84000008CA00840A00088D
:1003A000CB00CA0A0319CB0A03104E0D383E840055
:1003B0004A088000840A4B0880008A011F2103102C
:1003C0004E0D3C3E84000008CA00840A0008CB00A1
:1003D00003104E0D403E84004A088000840A4B08FA
:1003E000800003104E0D443E84000008CA00840AB9
:1003F0000008CB004A08A0004B08A1000930A30068
:10040000C4308A012A208A11031D082A8A01C829BA
:10041000CE0A8A11031DC229080063008A010D2A31
:02400E00FC3F75
:00000001FF
